:020000040800F2
:10000000588C002081020008232000083B1E0008B5
:1000100021200008B9030008DD29000800000000C5
:10002000000000000000000000000000A101000826
:10003000C903000800000000FD01000811230008AA
:100040009B0200089B0200089B0200089B0200081C
:100050009B0200089B0200089B0200089B0200080C
:100060009B0200089B0200089B0200089B020008FC
:100070009B0200089B0200089B020008BD030008C9
:100080009B0200089B0200089B0200089B020008DC
:100090009B0200089B0200089B0200089B020008CC
:1000A0009B0200089B0200089B0200089B020008BC
:1000B0009B0200089B0200089B0200089B020008AC
:1000C0009B0200089B0200089B0200089B0200089C
:1000D0009B020008D12900089B0200089B0200082F
:1000E0009B0200089B0200089B0200089B0200087C
:1000F0009B0200089B0200089B0200089B0200086C
:100100009B0200089B0200089B0200089B0200085B
:100110009B0200089B020008A9230008B5230008E1
:100120009B0200089B0200089B0200089B0200083B
:100130009B0200089B0200089B0200089B0200082B
:100140009B0200089B0200089B02000800000000C0
:100150009B0200089B0200089B0200089B0200080B
:100160009B0200089B0200089B0200089B020008FB
:100170009B0200089B020008000000000000000035
:100180009B0200089B020008DFF810D000F002F983
:10019000004800471D2A0008AFF30080588C00205B
:1001A0002C4B1968086800F05AB880F30988BFF32F
:1001B0006F8F4FF0000080F311887047000000003F
:1001C00008480068006880F308884FF0000080F35A
:1001D000148862B661B6BFF34F8FBFF36F8F00DF35
:1001E00000BF00BF08ED00E0DFF80C00016841F43B
:1001F00070010160704700BF88ED00E0EFF30980F7
:10020000BFF36F8F134B1A681EF0100F08BF20ED5D
:10021000108A20E9F04F106009B44FF0500080F3CD
:100220001188BFF34F8FBFF36F8F03F029FB4FF09F
:10023000000080F3118809BC1968086800F014B840
:100240001EF0100F08BF00F014B880F30988BFF348
:100250006F8F704714000020EFF30580704730C89F
:10026000B0E8C04FFFF7A1BF30C8B0E8C04FFFF7FC
:10027000E7BFB0EC088AB0EC08CAFFF7E6BF0000A1
:100280000648804706480047FEE7FEE7FEE7FEE730
:10029000FEE7FEE7FEE7FEE7FEE7FEE7992300083C
:1002A000890100082DE9F05F0546002092469B4633
:1002B00088460646814640241BE02846414647467C
:1002C000224600F056F853465A46C01A914110D3C0
:1002D00011461846224600F03DF82D1A67EB01083A
:1002E0004F4622460120002100F034F817EB0009A8
:1002F0004E41201EA4F10104DFDC484631462A4667
:10030000434600F000B830BCBDE8C09F40EA01039E
:100310009B0703D009E008C9121F08C0042AFAD2BB
:1003200003E011F8013B00F8013B521EF9D270477F
:10033000D2B201E000F8012B491EFBD27047002227
:10034000F6E710B513460A4604461946FFF7F0FFD4
:10035000204610BD202A04DB203A00FA02F10020DA
:1003600070479140C2F1200320FA03F319439040F3
:100370007047202A04DB203A21FA02F0002170475E
:1003800021FA02F3D040C2F12002914008431946FD
:1003900070470000064C074D06E0E06840F001039E
:1003A00094E8070098471034AC42F6D3FFF7F0FE0C
:1003B000A0430008C0430008FEE70000014800F029
:1003C00057B80000CC010020704772B6FEE710B5A8
:1003D00000280AD090F825100022022907D0042115
:1003E000C16380F82420012010BD012010BD0168E8
:1003F0000B6823F001030B6001680B6823F00E0308
:100400000B6090F84410012401F01C0304FA03F17E
:10041000036C596080F8254080F82420002010BD2E
:1004200010B5002490F82510022903D00421C163DF
:1004300001241AE001680A6822F001020A600168DA
:100440000A6822F00E020A6090F84410012301F0BD
:100450001C0203FA02F1026C516080F82530002181
:1004600080F82410816B01B18847204610BD000040
:10047000F0B4016C0A6801680B6890F844400426E7
:1004800004F01C0406FA04F5154215D05D0713D5D7
:100490000A68920603D40A6822F004020A6090F8FF
:1004A000441001F01C0106FA01F5016C4D60016B6E
:1004B00000294CD0F0BC0847022505FA04F7174282
:1004C0004FF0000C4FF0010625D09F0723D50A6896
:1004D000920605D40A6822F00A020A6080F82560B4
:1004E0001C4A0168914207D990F8441001F01C01A0
:1004F0008D4019490D6007E090F8441001F01C018F
:100500008D40144980394D6080F824C0C16A0029AB
:100510001DD0F0BC08470825A540154217D01A0782
:1005200015D50A6822F00E020A6090F84410026C99
:1005300001F01C0106FA01F15160C66380F82560E4
:1005400080F824C0416B002901D0F0BC0847F0BC02
:1005500070470000800002400404024010B50028EB
:100560000DD0344C01681423334AA14209D2334CD4
:100570000C44B4FBF3F39B00436402640BE00120E2
:1005800010BD2C4C64420C44B4FBF3F39B00436459
:10059000284B083B0364022380F825300B6847F69C
:1005A000F074A3430B60D0E902310B43D0E904148B
:1005B00021430B4381690B43C1690B43016A0B4320
:1005C00001680C6823430B608168B1F5804F29D026
:1005D000016C0F23914212D152F8A81F90F84440A9
:1005E00004F01C04A3409943116090F84430416822
:1005F00003F01C03994013681943116012E00D4980
:10060000A0310A6890F8444004F01C04A3409A43C7
:100610000A6090F84430426803F01C039A400B686B
:100620001A430A6000212430816101224270017066
:10063000002010BD0804024000000240F8FFFDBF8A
:100640002DE9F84F0022DFF8A8914FF001080327A9
:100650004FF00F0C09F1040AA9F1040BC1E008FAEC
:1006600002F42340002B76D00D7905F00305012D0F
:1006700001D0022D15D18668550007FA05FE26EA3D
:100680000E06D1F80CE00EFA05FE4EEA060EC0F892
:1006900008E04568A5430E79C6F3001696402E4340
:1006A00046604D68EE43B60706D1C66AA643C5F359
:1006B000C00494403443C4620C79E443A40708D0D6
:1006C000C568540007FA04F6B5438E68A6402E4369
:1006D000C6600C7904F00304022C11D1D40800EB9D
:1006E0008406356A5407E40E0CFA04FE25EA0E056A
:1006F000D1F810E00EFA04FE4EEA050EC6F820E02E
:100700000568540007FA04F6B5430E7906F00306AF
:10071000A6402E4306604C6814F4403F60D0354C30
:10072000256E45F001052566246E04F00104009451
:10073000314C22F003052E19B56894074FEA147E58
:100740000CFA0EF4A543B0F1904F05D02B4CA0420B
:1007500004D101241CE043E0002419E0284CA0420D
:1007600001D1022414E0274CA04201D103240FE060
:10077000254CA04201D104240AE0244CA04201D11E
:10078000052405E0224CA04201D1062400E0072404
:1007900004FA0EF42C43B460D9F800409C434D6831
:1007A000ED0200D51C43C9F80040DAF800409C4334
:1007B0004D68AD0200D51C43CAF80040DBF800408C
:1007C0009C434D68AD0300D51C43CBF80040084D59
:1007D000083D2C689C434E68F60300D51C432C60F2
:1007E000521C0B6833FA02F47FF439AF00F012B8F0
:1007F00008040140001002400000014000040048CD
:1008000000080048000C0048001000480014004890
:100810000018004818BCBDE8E08F002A01D08161B3
:10082000704781627047000001488068704700008F
:1008300004000020024881680278114481607047FA
:100840000400002010B50024032000F09FF80F20C2
:1008500000F008F808B1012401E000F04FF820464C
:1008600010BD000030B587B005461F48816D41F0CE
:1008700020018165806D00F02000009001A902A890
:1008800000F04EFB0598B0B100F06EFB4000174938
:10089000B0FBF1F1491E1748154A026040F2E732F9
:1008A000C2604160002202618260826100F07EFFCE
:1008B00004461CB115E000F057FBE8E70D4800F0D6
:1008C000BBFF04466CB9372000F032F8102D07D278
:1008D00000222946372000F039F80748056000E07B
:1008E000012407B0204630BD0010024040420F00F6
:1008F00000140040140200200800002082B00B48C1
:10090000016E41F001010166016E01F001010191EA
:10091000816D41F080518165806D00F080500190C3
:1009200000220F21901E02B000F010B8001002400B
:10093000002809DB00F01F020121914040098000DE
:1009400000F1E020C0F8001170470000F0B40D463F
:100950000D4B1B68C3F30223C3F10704042C00D919
:100960000424191D072901D2002300E0DB1E012603
:1009700006FA04F1491E294099409E40761E164011
:100980003143F0BC02F02BB80CED00E000F00701A1
:10099000054A10684FF6FF03184040EA012003495A
:1009A00008431060704700000CED00E00000FA05FD
:1009B0001749B0F5007F0CD00868C0F34120022829
:1009C00005D0086820F4C06040F480600860002012
:1009D00070470868C0F341200128F8D0086820F467
:1009E000C06040F4007008600A483222006850433A
:1009F000094AB0FBF2F0401C00E0401E4A69520573
:100A000001D50028F9D148694005E0D50320704799
:100A1000007000401000002040420F0002480068B3
:100A200000F4C06070470000007000402DE9F84FEE
:100A30000446002500272088D94E000504F1200B2C
:100A40000DD5606ED0B3B0F5800F45D0B0F5000F76
:100A500037D0B0F5400F00D0012585B32F46208850
:100A6000C0040DD5A06E58B3B0F1807F4FD0B0F167
:100A7000007F41D0B0F1407F00D0012595B32F46D3
:100A80002068800363D54FF00008B06DC00009D422
:100A9000B06D40F08050B065B06D00F080500090B7
:100AA0004FF00108DFF8FCA2DAF8000040F4807093
:100AB000CAF80000FFF7B8FE81463FE006E012E00A
:100AC0001FE0F06840F48030F060C6E70021201D90
:100AD00001F0A8FA0546C0E70021584601F044FBA2
:100AE0000546BAE719E0D6F88800616E20F44000A8
:100AF0000843C6F88800B2E7F06840F48030F06040
:100B0000BCE70021201D01F08DFA0546B6E7002163
:100B1000584601F029FB0546B0E7D6F88800A16EDB
:100B200020F040700843C6F88800A9E7FFF77CFE74
:100B3000A0EB0900022801D9032503E0DAF8000040
:100B4000C005F3D525B12F46B8F1010F38D03BE0F1
:100B5000D6F8900000F4407088B1D4F8801081423B
:100B60000DD056F8900F20F44070316841F4803178
:100B70003160316821F48031316046F89009C00756
:100B800011D0FFF751FE814641F2883A07E0FFF7A6
:100B90004BFEA0EB0900504501D9032503E0D6F830
:100BA00090008007F3D50DB12F46CDE7D6F8900021
:100BB000D4F8801020F440700843C6F89000C3E7D2
:100BC000B06D20F08050B0652078C00707D0D6F80F
:100BD0008800A16B20F003000843C6F88800207845
:100BE000800707D5D6F88800E16B20F00C00084399
:100BF000C6F888002078400707D5D6F88800216C11
:100C000020F030000843C6F888002078000707D598
:100C1000D6F88800616C20F0C0000843C6F8880050
:100C20002078C00607D5D6F88800A16C20F4407063
:100C30000843C6F888002078800607D5D6F88800D3
:100C4000E16C20F440600843C6F8880020888005E5
:100C500007D5D6F88800E16D20F440200843C6F897
:100C600088002088400507D5D6F88800216E20F43A
:100C700040100843C6F888002078400607D5D6F80B
:100C80008800216D20F440500843C6F88800207881
:100C9000000607D5D6F88800616D20F4404008436F
:100CA000C6F888002088C00507D5D6F88800A16D51
:100CB00020F440300843C6F8880020684FF00065F3
:100CC00000034FF0806817D5D6F88800E16E20F059
:100CD00040600843C6F88800E06EA84204D1F0687E
:100CE00040F48010F06007E0404505D10121201D4F
:100CF00001F098F900B107462068400317D5D6F8EF
:100D00008800216F20F040600843C6F88800206FFB
:100D1000A84204D1F06840F48010F06007E040453C
:100D200005D10121201D01F07DF900B10746208881
:100D300040041CD5D6F88800616F20F0405008436D
:100D4000C6F88800606FB0F1805F03D0B0F1005F3B
:100D500007D00CE00221201D01F064F938B10746EC
:100D600005E00221584601F0FFF900B1074620884E
:100D7000000407D5D6F88800A16F20F08040084312
:100D8000C6F888002068C00306D556F8880FE16FC2
:100D900020F0004008433060384600F005B80000FD
:100DA000001002400070004018BCBDE8E08F000059
:100DB0002DE9F04704460D46002C17D0DFF84C8192
:100DC000D8F8000000F00700A84211D2D8F80000BF
:100DD00020F007002843C8F80000D8F8000000F011
:100DE0000700A84204D00120BDE8F0870120FBE7FE
:100DF0002078474E80070AD5A068B16801F0F0015D
:100E0000884204D9B16821F0F0010143B160207833
:100E1000C00732D06068032807D002280AD070B11A
:100E20003168490510D40120DEE7316889010BD40F
:100E30000120D9E73168890306D40120D4E731685D
:100E4000890701D40120CFE7B16821F003010143F4
:100E5000B160FFF7E9FC074641F2883906E0FFF789
:100E6000E3FCC01B484501D90320BDE7B0686168B9
:100E700000F00C00B0EB810FF1D1207880070AD58B
:100E8000A068B16801F0F001884204D2B16821F095
:100E9000F0010143B160D8F8000000F00700A8425B
:100EA0000ED9D8F8000020F007002843C8F8000049
:100EB000D8F8000000F00700A84201D0012093E715
:100EC0002078400705D5B068E16820F4E060084369
:100ED000B0602078000706D5B068216920F4605022
:100EE00040EAC100B06000F063F8B168094AC1F39C
:100EF0000311515C01F01F01C84007490860074811
:100F00000068BDE8F047FFF7ADBC000000200240DC
:100F1000001002404C430008100000200800002090
:100F20000F2202600B4A936803F003034360936847
:100F300003F0F0038360936803F4E063C360926896
:100F400002F46052D20802610348006800F0070012
:100F5000086070470010024000200240014800680D
:100F6000704700001000002000B5FFF7F7FF0549AB
:100F70008968054AC1F30221515C01F01F01C84094
:100F800000BD0000001002408C43000800B5FFF7D0
:100F9000E5FF05498968054AC1F3C221515C01F0AA
:100FA0001F01C84000BD0000001002408C43000833
:100FB00070B500220020244B996801F00C01DC6818
:100FC00004F00304214D6E10002908D00C2901D132
:100FD000012C04D0042913D0082913D013E01A6877
:100FE000120704D4D3F89420C2F3032202E01A6853
:100FF000C2F30312164C54F8222021B9104602E025
:10100000284600E030460C2918D1D86800F00300CB
:10101000022814D0032814D01046D968C1F3021155
:10102000491CDA68C2F306224243B2FBF1F0D968E8
:10103000C1F34161491C4900B0FBF1F070BD284685
:10104000EBE73046E9E70000001002400024F4001E
:101050005C4300082DE9F8430446002C0DD0F94EFE
:10106000B06800F00C05F06800F003072078C006B7
:101070006AD595B10C2D03D004E00120BDE8F883BA
:10108000012F0AD0A06900287DD0306840F001000F
:101090003060FFF7C9FB80465FE03068800701D50C
:1010A000A06938B1206A3168090705D5316801F0B7
:1010B000F00106E00120E1E7D6F8941001F4706138
:1010C0000909884216D901F0DDF808B10120D5E7F9
:1010D000306840F0080030603068216A20F0F0008D
:1010E000084330607068E16920F47F4040EA0120E5
:1010F000706017E0306840F0080030603068216AA6
:1011000020F0F000084330607068E16920F47F400F
:1011100040EA012070602DB9206A01F0B3F808B1EF
:101120000120ABE7FFF744FFB168C74AC1F30311E1
:10113000515C01F01F01C840C4490860C448006800
:10114000FFF790FB002899D130E0FFF76DFBA0EB93
:101150000800022801D9032090E730688007F4D501
:10116000306840F0080030603068216A20F0F000FC
:10117000084330607068E16920F47F4040EA012054
:10118000706013E0FFE7306820F001003060FFF787
:101190004BFB804607E0FFF747FBA0EB0800022867
:1011A00001D903206AE730688007F4D42078C007AB
:1011B0004AD0082D18D00C2D01D1032F14D060680F
:1011C000B0F5803F17D0B0F5A02F19D0306820F4CB
:1011D00080303060306820F480203060606820B358
:1011E000FFF722FB80461CE0306880032CD5606846
:1011F00050BB012042E7306840F480303060EDE7BA
:10120000306840F480203060306840F480303060D6
:10121000E4E7FFF709FBA0EB0800642801D90320ED
:101220002CE730688003F4D50EE0FFF7FDFA804626
:1012300007E0FFF7F9FAA0EB0800642801D90320C2
:101240001CE730688003F4D42078800742D5042D51
:101250000DD00C2D01D1022F09D0E06840B33068C9
:1012600040F480703060FFF7DFFA074615E0306821
:10127000400501D5E06838B17068217C20F0F85055
:1012800040EA0160706025E00120F7E6FFF7CCFA44
:10129000C01B022801D90320F0E630684005F5D5CF
:1012A0007068217C20F0F85040EA0160706011E025
:1012B000306820F480703060FFF7B6FA074606E029
:1012C000FFF7B2FAC01B022801D90320D6E6306826
:1012D0004005F5D4207800072CD56069A8B1D6F870
:1012E000940040F00100C6F89400FFF79DFA07460D
:1012F00006E0FFF799FAC01B022801D90320BDE6DA
:10130000D6F894008007F4D514E0D6F8940020F0C5
:101310000100C6F89400FFF787FA074606E0FFF7DA
:1013200083FAC01B022801D90320A7E6D6F894004F
:101330008007F4D42078400776D54FF00008B06DD0
:10134000C00009D4B06D40F08050B065B06D00F0C1
:10135000805000904FF00108DFF8F890D9F80000B5
:10136000C00514D4D9F8000040F48070C9F800001A
:10137000FFF75AFA074606E0FFF756FAC01B0228A5
:1013800001D903207AE6D9F80000C005F4D5A06899
:10139000012813D0052818D056F8900F20F001002E
:1013A0003060306820F0040046F89009A06841F2EF
:1013B000883710B3FFF738FA814619E0D6F8900065
:1013C00040F00100C6F89000F0E756F8900F40F0AA
:1013D00004003060306840F0010046F89009E5E70D
:1013E000FFF722FAA0EB0900B84201D9032045E635
:1013F000D6F890008007F3D50FE0FFF715FA814685
:1014000007E0FFF711FAA0EB0900B84201D9032069
:1014100034E6D6F890008007F3D4B8F1010F03D179
:10142000B06D20F08050B065A06A88B3022813D058
:101430000C2D7CD0306820F080703060FFF7F4F91C
:101440000446AEE0001002404C43000810000020AB
:101450000800002000700040F068E26A00F003011C
:101460004FF0FF37914228D1216B00F07002491EE6
:10147000B2EB011F21D1626B00F4FE41B1EB022FF0
:101480001BD1A16B00F40032072902D0012101E039
:101490007FE000218A4210D1A28F00F4C00107EB47
:1014A0005202B1EB425F08D194F8401000F0C060E6
:1014B00007EB5101B0EB416F52D00C2D4ED030688C
:1014C000400102D43068C00001D50120D6E5306863
:1014D00020F080703060FFF7A7F9054606E0FFF7BF
:1014E000A3F9401B022801D90320C7E53068800119
:1014F000F5D4D4E90B10401E41EA0010616BA28FB5
:10150000090207EB520241EA4251084394F84010A5
:1015100007EB510140EA4160A16B090940EA4140F3
:10152000F168254A11400843F060306800E041E06E
:1015300040F080703060F06840F08070F060FFF73D
:1015400073F9044606E0FFF76FF9001B022801D982
:10155000032093E530688001F5D529E001208DE571
:101560003068800124D4306840F080703060F068CA
:1015700040F08070F060FFF757F9044606E0FFF78F
:1015800053F9001B022801D9032077E53068800158
:10159000F5D50DE0FFF748F9001B022801D903201B
:1015A0006CE530688001F5D4F06804490840F060CB
:1015B000002063E5012061E58C809DF9FCFFEEFED3
:1015C00070B50446002C09D0606A002540B1256141
:1015D0006561A56294F85D0040B10CE0012070BD2A
:1015E0006068B0F5827FF4D0E561F2E784F85C5082
:1015F000204600F057F8022084F85D00206801685A
:1016000021F040010160E1684FF4E062914201D9AC
:10161000002001E04FF48050B1F5706F02D091428C
:1016200000D0A562A188228901F4827102F40442EB
:101630001143227C02F002021143227D02F00102DA
:101640001143228B02F400721143227F02F0380210
:10165000114394F8202002F080021143228D02F4FD
:101660000052114322681160A169042202EA11416B
:1016700094F8242000F4805002F01002114394F8F2
:10168000342002F008021143A28902F4706211436F
:101690000143206841602566012084F85D00002038
:1016A00070BD000010B586B00446142101A8FEF7F5
:1016B00046FE1349206888421FD11248816D41F4CB
:1016C00080418165816D01F480410091C16C41F0E0
:1016D0000201C164C06C00F0020000904FF4604051
:1016E0000190022002900020039003200490052026
:1016F000059001A90448FEF7A3FF06B010BD000045
:101700000038004000100240000400487047704755
:1017100070470000F0B590F83C20012A37D0012630
:1017200080F83C60022280F83D2003685A689C687B
:10173000184FDFF864C0BB4201D0634503D122F4E7
:1017400070054A682A4322F070050A682A435A60E5
:101750000268BA4210D0B2F1804F0DD00F4B9A42BE
:101760000AD00F4B9A4207D00E4B9A4204D06245E2
:1017700002D00D4B9A4204D124F0800389681943AA
:1017800091603C304670002101700020F0BD0220C5
:10179000F0BD0000002C0140003401400004004076
:1017A00000080040000C00400040014010B5044615
:1017B000002C03D094F83D0010B107E0012010BDCB
:1017C000002084F83C00204600F018F8022084F83D
:1017D0003D00211D206800F0F3FD01203D34E07242
:1017E0006070A070E07020716071A071E071207273
:1017F0006072A0722070002010BD000008B5006863
:101800000B49884212D10B48816D41F0100181656E
:10181000806D00F010000090002205213620FFF7B7
:1018200095F8BDE808403620FFF782B808BD0000F3
:10183000001000400010024090F83D10012901D036
:1018400001207047022180F83D100168CA6842F00B
:101850000102CA6000681449884211D0B0F1804F7B
:101860000ED0124988420BD01149884208D0114944
:10187000884205D01049884202D0104988420CD1D4
:1018800081680F4A114006290BD0B1F5803F08D07E
:10189000016841F00101016003E0016841F00101CC
:1018A0000160002070470000002C0140000400404F
:1018B00000080040000C004000340140004001409E
:1018C0000700010070472DE9F04104462068C66812
:1018D00005694FF00007A90714D5B10712D5F91E05
:1018E00001610120207720688069800703D02046AD
:1018F000FFF7E8FF05E0204600F08EF8204600F0F4
:101900008CF82777680717D5700715D521686FF011
:1019100004000861022020772068806910F4407F6D
:1019200003D02046FFF7CEFF05E0204600F074F814
:10193000204600F072F82777280716D5300714D50F
:1019400021686FF008000861042020772068C069D2
:10195000800703D02046FFF7B5FF05E0204600F0E2
:101960005BF8204600F059F82777E80617D5F0060F
:1019700015D521686FF010000861082020772068D5
:10198000C06910F4407F03D02046FFF79BFF05E0BD
:10199000204600F041F8204600F03FF82777E8079E
:1019A00008D0F00706D021686FF0010008612046DA
:1019B00000F034F8280601D4A80408D5300606D56E
:1019C00021686FF4025008612046FFF7A0FEE80589
:1019D00008D5300606D521686FF48070086120466E
:1019E000FFF794FE680608D5700606D521686FF0EB
:1019F00040000861204600F01BF8A8060AD5B00692
:101A000008D521686FF0200008612046BDE8F0414C
:101A1000FFF77EBEBDE8F08170477047006803495C
:101A2000884201D1FEF706BF704700000014004055
:101A300070477047704770472DE9F04104462268AF
:101A4000D0691168936840F60F0500EA0507002F7A
:101A50000AD1850608D58D0606D5A16E00297DD050
:101A60002046BDE8F041084700260225002F76D029
:101A7000DFF890C203F0010701EA0C0C57EA0C0CE6
:101A80006DD05FEAC07C0CD05FEAC15C09D54FF035
:101A9000010CC2F820C0D4F8842042F00102C4F83E
:101AA0008420820709D5DA0707D022681562D4F8A6
:101AB000842042F00402C4F8842042070AD5DA07E1
:101AC00008D0236804221A62D4F8842042F002026B
:101AD000C4F8842002070CD501F020023A4308D054
:101AE000236808221A62D4F8842042F00802C4F85D
:101AF000842002050BD54A0109D523684FF4006202
:101B00001A62D4F8842042F02002C4F88420D4F869
:101B10008420002A35D0800605D5880603D5A16E1D
:101B200009B120468847D4F88400216889684906AD
:101B300002D410F0280F2AD0204600F066FD20685D
:101B4000806840061FD52068083050E8001F21F04B
:101B5000400140E80012002AF5D101E011E01CE04C
:101B6000606F58B168498163606FFEF759FC0028C7
:101B700007D0606F816BBDE8F04108472046FFF752
:101B80005AFFBDE8F0812046FFF755FFF9E72046F0
:101B9000FFF751FFC4F88460F3E7276E012F7DD172
:101BA000C7067BD5CF0679D51020106220688068E3
:101BB0004FF02003400653D5616F0A68506880B229
:101BC000F0B3B4F8587087423ED9A4F85A000868B8
:101BD000006880062BD4206850E8001F21F4807133
:101BE00040E80012002AF6D12068083050E8001FB3
:101BF00021F0010140E80012002AF5D120680830E8
:101C000050E8001F21F0400140E80012002AF5D101
:101C1000C4F880302666206850E8001F21F01001CB
:101C200040E80012002AF6D1606FFEF7D0FB65662F
:101C3000B4F85800B4F85A10401A81B2204600E0B7
:101C400002E0FFF7F6FE9CE7B4F85810814298D105
:101C50001068800695D565662046FFF7EAFE90E796
:101C600034F8580F6188401A81B26088583C0028C7
:101C700087D0002985D0206850E8002F22F4907288
:101C800040E80027002FF6D12068083050E8002FE8
:101C900022F0010240E80027002F00E012E0F3D11B
:101CA000C4F880302666A666206850E8002F22F02F
:101CB000100240E80023002BF6D165662046FFF7AE
:101CC000B8FE5EE7C50209D55B0207D54FF4801068
:101CD00010622046BDE8F041FFF7ACBE020608D511
:101CE0000A0606D5E16E0029ADD02046BDE8F041D8
:101CF00008474006A7D54806A5D52046BDE8F041CF
:101D000000F0A9BC200100040126000810B504461B
:101D1000002C02D0E06F10B107E0012010BD0020C0
:101D200084F87800204600F027F82420E067206837
:101D3000016821F001010160606A10B1204600F0E5
:101D4000A6FB204600F098FC012813D020684168CB
:101D500021F4904141602068816821F02A0181606E
:101D60002068016841F0010101602046BDE8104093
:101D700000F0F1BB012010BDF0B5A7B0064614215C
:101D800022A8FEF7DCFA842101A8FEF7D8FA26493A
:101D90003068884246D10120019000250F9501A8A6
:101DA000FEF744FE08B1FEF710FB2049086E40F430
:101DB00080400866086E00F480400090C86C40F0D7
:101DC0000100C864C86C00F0010000904FF4C060CE
:101DD0002290022723972495032025900720269000
:101DE00022A94FF09040FEF72BFC124C10482060C7
:101DF0006760A560E560802020616561A5612020A5
:101E0000E06125622046FEF7A9FB08B1FEF7DDFA86
:101E10007467A662002205212520FEF797FD252084
:101E2000FEF786FD27B0F0BD0038014000100240EB
:101E300058000240CC0100207047FEE708B5094871
:101E4000816C41F001018164806C00F00100009020
:101E5000002205210F20FEF779FDBDE808400F2084
:101E6000FEF766BD0010024010B5044A0021044888
:101E700000F028FE0349086010BD00002843000858
:101E80000923000800000020F0B587B0142102A843
:101E9000FEF755FA2948C16C41F00401C164C16CD8
:101EA00001F004010191C16C41F08001C164C16C79
:101EB00001F080010191C16C41F00201C164C16C6B
:101EC00001F002010191C16C41F00101C164C16CDA
:101ED00001F001010191C16C41F00801C164C06CC5
:101EE00000F0080001900122154E140321463046EF
:101EF000FEF793FC0294012103910024049402252F
:101F0000059502A93046FEF79BFB4FF44060029016
:101F100003950494032605960727069702A9094806
:101F2000FEF78EFB602002900395049405960697B9
:101F300002A90548FEF784FB07B0F0BD001002407F
:101F40000004004800080048000C004810B5124882
:101F5000104901604FF482714160002181604FF4AB
:101F6000E062C260016141614FF400728261082247
:101F7000C2610162416281620723C36201634263FD
:101F8000FFF71EFB002803D0BDE81040FEF71DBA86
:101F900010BD000000380040940000203EB5002431
:101FA0000094019402940E480C4901604F21416055
:101FB000846040F2E731C16080218161FFF7F6FB68
:101FC00008B1FEF702FA0094029469460448FFF74C
:101FD000A1FB002801D0FEF7F8F93EBD001000403B
:101FE000F800002010B50D480B4901604FF4E131B5
:101FF000416000218160C16001610C224261816108
:10200000C16101624162FFF781FE002803D0BDE893
:102010001040FEF7DAB910BD00380140440100203D
:10202000FEE7FEE72DE9F0410546884600244A4ECA
:10203000F068810728680ED0F16801F00301814241
:1020400007D130B1F0686968C0F30210401C8842C3
:1020500025D0012423E0012806D0022809D0032836
:102060000CD0012494B11AE031688907FAD4012414
:10207000F8E731684905F5D40124F3E731688903AD
:10208000F0D431684903EDD40124EBE7F16821F085
:1020900073026968491E42EA01110143F16074BB91
:1020A000306820F080603060FEF7BEFB074606E037
:1020B000FEF7BAFBC01B022801D9032402E03068F6
:1020C0000001F5D4DCB9B8F1000F19D04FF0FF30A2
:1020D000B8F1010F20D0A9682A7D090200EB520057
:1020E00041EA406031691D4A11400843306130685F
:1020F00040F080603060FEF797FB074620E027E065
:10210000A868E9680002090940EA41403169144AB7
:10211000114008433061EAE7A9682A8A090200EB06
:10212000520041EA405130690E4A1040014331618A
:10213000DDE7FEF779FBC01B022801D9032402E08A
:1021400030680001F5D51CB93069A96908433061D0
:102150002046BDE8F081000000100240FF80FFF93A
:10216000FF80FDFFFF809FFF2DE9F0410546884677
:102170000024414EF068810728680ED0F16801F014
:102180000301814207D130B1F0686968C0F30210E1
:10219000401C884225D0012423E0012806D00228D3
:1021A00009D003280CD0012494B11AE031688907C2
:1021B000FAD40124F8E731684905F5D40124F3E79E
:1021C00031688903F0D431684903EDD40124EBE789
:1021D000F16821F073026968491E42EA0111014366
:1021E000F160B4BB306820F080503060FEF71CFB1B
:1021F000074606E0FEF718FBC01B022801D903249E
:1022000002E030688000F5D41CBBB8F1000F14D098
:10221000A868297C00027F2202EB510140EA41615B
:102220007069164A104001437161306840F0805077
:102230003060FEF7F9FA074613E0A868E968000283
:10224000090940EA414071690D4A11400843706133
:10225000EBE70EE0FEF7E8FAC01B022801D90324E1
:1022600002E030688000F5D51CB9706969690843DF
:1022700070612046BDE8F08100100240FF80FFF948
:10228000FF80FDFFF8B5054600241D4EB06DC0006F
:1022900002D5FEF7C3FB0DE0B06D40F08050B06595
:1022A000B06D00F080500090FEF7B8FBB16D21F0EA
:1022B0008051B165B0F5007F04D0802D0AD94FF070
:1022C00003040DE0802D0BD9A02D01D9022407E0D5
:1022D000012405E001D1022402E0702D00D1012487
:1022E0000848016821F0070121430160006800F0FF
:1022F0000700A04201D00120F8BD0020F8BD000079
:102300000010024000200240012000F09CFBFBE78F
:1023100010B54FF0E020006901F044FE012803D021
:10232000BDE8104001F05ABB10BD10B596B0442175
:1023300005A8FEF704F814216846FEF700F84FF4EC
:102340000070FEF735FB08B1FEF73FF8012105915B
:102350000804069002200F90032410941191142178
:102360001291072113911490159005A8FEF772FEA3
:1023700008B1FEF72AF80F20009001940020029087
:102380000390049004216846FEF712FD002801D056
:10239000FEF71BF816B010BD0248016841F4700149
:1023A0000160704788ED00E00148FFF78CBA00003B
:1023B000F80000200148FFF786BA00001402002050
:1023C0002DE9F04F0268284D284E294FDFF8A4C0B0
:1023D000294B4FF0804AA84209D0504507D0B0425F
:1023E00005D0B84203D0604501D0984203D122F015
:1023F00070044A682243DFF88480DFF88490DFF8B5
:1024000084B0A8420FD050450DD0B0420BD0B84296
:1024100009D0604507D0984205D0404503D04845D3
:1024200001D0584503D122F44074CA6822434C6954
:1024300022F0800222438C68C4620C688462A84245
:1024400007D0984205D0404503D0484501D05845B3
:1024500001D109690163016841F0040101600121B2
:102460004161026000F010B8002C014000040040FF
:1024700000080040000C00400034014000400140D2
:10248000004401400048014030BCBDE8C08F90F8D6
:102490002410090706D501684A68436B22F40042FC
:1024A0001A434A6090F82410C90706D001684A68A8
:1024B000836A22F400321A434A6090F82410890794
:1024C00006D501684A68C36A22F480321A434A601A
:1024D00090F82410490706D501684A68036B22F476
:1024E00080221A434A6090F82410C90606D5016874
:1024F0008A68836B22F480521A438A6090F8241011
:10250000890606D501688A68C36B22F400521A4313
:102510008A6090F82410490611D501684A68036C56
:1025200022F480121A434A60016CB1F5801F06D173
:1025300001684A68436C22F4C0021A434A6090F86A
:102540002410090606D501684A68806C22F400222E
:1025500002434A6070472DE9F84304460025C4F859
:102560008450FEF761F98046206800684FF020062D
:1025700000076FF07E4716D54346002231042046FF
:10258000009700F0D9F970B1206850E8001F21F0E1
:10259000800140E80012002AF6D1E66784F87850FE
:1025A0000320BDE8F88320680068400720D5434633
:1025B00000224FF480012046009700F0BDF9B8B129
:1025C000206850E8001F21F4907140E80012002AB2
:1025D000F6D12068083050E8001F21F0010140E8E2
:1025E0000012002AF5D17834A66025700320D8E7C0
:1025F0006034E66126622560656025760020D0E7BC
:1026000010B5806AFFF717FA10BD016851E8002F76
:1026100022F4907241E80023002BF6D101680831C2
:1026200051E8002F22F0010241E80023002BF5D1F0
:10263000016E012908D1016851E8002F22F0100233
:1026400041E80023002BF6D12021C0F880100021A2
:1026500001668166704710B5016851E8002F22F0CD
:10266000400241E80023002BF6D12021C167002160
:10267000C166FFF7E1FB10BD2DE9F04104460025DE
:10268000A34B20682269A168E6691143626932435D
:10269000114302689F4E32400A430260206841683D
:1026A000E26821F4405111434160A06921689942D8
:1026B00001D0226A10438A6822F4306202438A60A1
:1026C0009549226895488A4214D1D0F8880010F0C4
:1026D000030007D0012809D0022805D0032807D01D
:1026E000102185E0012183E0022181E004217FE0C7
:1026F00008217DE08A498A4214D1D0F8880010F080
:102700000C0007D0042809D0082805D00C2807D0D1
:1027100010216DE000216BE0022169E0042167E0F7
:10272000082165E07F498A4214D1D0F8880010F072
:10273000300007D0102809D0202805D0302807D035
:10274000102155E0002153E0022151E004214FE027
:1027500008214DE074498A4214D1D0F8880010F065
:10276000C00007D0402809D0802805D0C02807D055
:1027700010213DE000213BE0022139E0042137E057
:10278000082135E069498A4217D1D0F8880010F451
:1027900040700AD0B0F5807F0BD0B0F5007F06D036
:1027A000B0F5407F07D0102122E0002120E0022177
:1027B0001EE004211CE008211AE09A4217D1D0F84B
:1027C000880010F440600AD0B0F5806F0BD0B0F5EF
:1027D000006F06D0B0F5406F07D0102108E000214F
:1027E00006E0022104E0042102E0082100E01021BB
:1027F0004F4800264FF4004C9A422DD191B1022946
:1028000005D0042911D0082912D00020012500B3D9
:10281000626802EB4201814202D8B0EB023F09D963
:1028200001256FE0FEF7A0FBF1E7FEF7C1FBEEE745
:102830006046ECE7010E03025008181871410023AE
:10284000FDF730FD3B4AA0F54071914202D8216866
:10285000C86057E0012555E0E2694FF6EF77624521
:102860002BD1092911D2DFE801F0050812100B1055
:1028700010100E00FEF778FB09E0FEF787FB06E07C
:10288000FEF796FB03E0604601E000200125B8B3A7
:102890004100606801EB5001B1FBF0F0A0F11001C4
:1028A000B94208D84FF6F0710140C0F3420001432D
:1028B0002068C16026E0012524E0092911D2DFE863
:1028C00001F0050812100B1010100E00FEF74CFB63
:1028D00009E0FEF75BFB06E0FEF76AFB03E06046FB
:1028E00001E00020012558B1616800EB5100B0FB08
:1028F000F1F0A0F11001B94203D8216880B2C8609C
:1029000000E00125A666E6662846BDE8F0810000E5
:1029100000800040F369FFEF0038014000100240E2
:102920000044004000480040004C0040005000407F
:102930000024F400FFFC0F002DE9F0470446089E38
:102940000D46174698464FF0000935E0701C33D00D
:10295000FDF76AFFA0EB0800B04219D8C6B12068A5
:102960000168490728D5802D26D0402D24D0C16983
:10297000C94309070ED42068082505622046FFF7E1
:1029800044FEC4F8845084F878900120BDE8F087B4
:102990000320FBE7C069C04300050DD421684FF454
:1029A000006008622046FFF730FE2020C4F8840053
:1029B00084F878900320E9E72068C06935EA0000D0
:1029C00004D00020B842C1D00020DFE70120F9E7A1
:1029D0000148FFF731B8000044010020FEE7090775
:1029E000090E002804DB00F1E02080F80014704795
:1029F00000F00F0000F1E02080F8141D704702E0A5
:102A000008C8121F08C1002AFAD170477047002079
:102A100001E001C1121F002AFBD17047FDF712FF30
:102A2000FFF783FCFFF730FAFFF708FAFFF7DAFA4F
:102A3000FFF7B4FAFFF78AFA00F014F8FFF714FA78
:102A400000F024F8FEE710B5EFF30581002902D06D
:102A50006FF0050403E0002408B100F053FE2046A7
:102A600010BD0000EFF30580002802D06FF00500D4
:102A700070470548016811B14FF0FF3070470121E0
:102A800001600020704700006400002010B5EFF3E3
:102A90000580002802D06FF0050010BD07480168CE
:102AA000012902D04FF0FF3010BD054A00211170FE
:102AB0000221016000F094FE002010BD640000209F
:102AC0001FED00E02DE9FF470B464FF00008CDF861
:102AD0000C80EFF3058199BB90B37F261824002565
:102AE000691E72B3176807B13D46976907B13C4646
:102AF000671E382F02D21779FF0703D0002004B0D9
:102B0000BDE8F087576907B1BE08D2F808C0BCF12C
:102B1000000F0CD0D2F80C90B9F15C0F07D3D2F8AB
:102B20001090B9F1000F02D00FB101210BE0BCF100
:102B3000000F08D1D76837B9176927B9002102E01B
:102B40001BE0FFE70021012901D059B115E0916890
:102B500012690291CDE900423246294601F0F3F9AB
:102B600003900AE003A9CDE90041B2B2294601F081
:102B7000B5F9012801D0CDF80C800398BFE700001B
:102B80002DE9F04104460F46134EF5683068001DEC
:102B900000F084FC601C07D137B13168BDE8F0411A
:102BA000091D0E4800F0C8BC2C4430684460AC429B
:102BB00006D23168B06B091DBDE8F04100F0A4BC3D
:102BC0003168706B091D00F09FFCB06A844200D22E
:102BD000B462BDE8F081000014000020500700201E
:102BE00070B5044600F0B4FC1C4DA868401CA860F9
:102BF000286810B1686938B10CE02C60A868012819
:102C000008D100F09BF905E02868E16AC06A8842B3
:102C100000D82C60686A401C68626064E06A2969B8
:102C2000884200D928610E4900EB800001EB80004A
:102C3000211D00F081FC00F0ABFC686900280CD07D
:102C40002868E16AC06A884207D206494FF080507E
:102C50000860BFF34F8FBFF36F8F70BD140000206B
:102C6000A002002004ED00E038B500F071FC104C2B
:102C70002068C8B90F4800F039FC0E48143000F045
:102C800035FC0C48E060143020610A4B0020F03B1A
:102C9000009003F1500210210A2000F0B5FE2060E0
:102CA00010B105A100F0F8FCBDE8384000F070BCA0
:102CB0005000002054080020546D725100000000A4
:102CC00070B50C4D0C4E11E000F042FCF068C46889
:102CD000201D00F0E3FBA868401EA8606868401E45
:102CE000686000F055FC204600F053F86868002842
:102CF000EAD170BD140000203C07002030B40B4620
:102D0000026C002A0CD0C1681144C1608468A142E1
:102D100001D30168C160C16830BC1846FDF7F6BA3E
:102D200030BC70472DE9F041044617460026A56BDC
:102D3000226C002A10D0C7B1E068FDF7E7FAE1681D
:102D4000206C091AE1602268914202D2A168081A37
:102D5000E060022F16D017E02068A8B9A06801F043
:102D60009BF906460020A0600EE06068FDF7CEFAF1
:102D7000216C606808446060A168884204D32068C0
:102D8000606001E005B16D1E6D1CA5633046BDE8B5
:102D9000F08110B5044694F8590000280BD00128A2
:102DA00011D0022814D0502080F31188BFF34F8F28
:102DB000BFF36F8FFEE7206B00F000FC2046BDE8FC
:102DC000104000F0FBBB2046BDE8104000F0F6BB11
:102DD00010BD00000749CA681168002904D000210D
:102DE000016019B1002070470121F9E7D06800683F
:102DF000704700005000002047F230510F48420752
:102E000005D0C01D20F007000C4A821A891A0C4A0E
:102E10001060002353600144083921F00701183A7B
:102E200011604B600B600B1A43600160406890605A
:102E300050604FF00040506170470000280F0020A4
:102E400080000020074E4FF08054074DFFF738FFF9
:102E500030680128FAD92C60BFF34F8FBFF36F8F12
:102E6000F4E70000A002002004ED00E070B51D466C
:102E7000049C002909D02260E063216401212046DE
:102E800000F0F8FD84F84C5070BD2460F4E72DE9A3
:102E9000F05F8246DDE90A590C9C0E4617469B46B8
:102EA000B900A522206BFDF743FA206B7F1E00EBD3
:102EB000870020F00707780707D0502080F311889B
:102EC000BFF34F8FBFF36F8FFEE74FF0000866B17F
:102ED00000202218315C82F83410315C11B1401CA2
:102EE0001028F6D384F8438001E084F83480382D2C
:102EF00000D33725E562E564C4F85080201D00F05A
:102F000000FB04F1180000F0FCFA2461C5F1380060
:102F1000A0616462C4F8548084F858805A465146CF
:102F2000384600F0A9FA2060B9F1000F01D0C9F8C5
:102F3000004000F000B830BCBDE8C09F70B5002470
:102F4000114D04EB840005EB800000F0CFFA641C07
:102F5000382CF6D30D4800F0C9FA0C48143000F0B4
:102F6000C5FA0A48283000F0C1FA08483C3000F0A1
:102F7000BDFA0648503000F0B9FA054803494163EC
:102F80001431816370BD0000A00200200007002002
:102F90001400002030B5134900E011460A6882424F
:102FA000FBD34B685C18844203D1406818444860E6
:102FB00008460D6844682318AB420DD1094B183BF5
:102FC0001B689A4206D05268224442600A6812681E
:102FD000026002E0036000E00260814200D008600D
:102FE00030BD00008000002070B500244160006109
:102FF0000C4D91420AD8D11A8269914201D3012421
:103000000EE0011D286900F07FFA09E09A4203D220
:10301000994201D3012403E0011DE86800F074FA2D
:10302000204670BD5000002010B5044600F090FA14
:10303000A06B20B1002400F0ABFA204610BD0124A3
:10304000F9E710B5044600F083FAA06BE16B884203
:1030500001D1012400E0002400F09AFA204610BDBE
:10306000F8B505460E461748C068C068C468201DFC
:1030700000F014FA94F82800410718D5A0692B46EF
:10308000411932462046FFF7AFFFA0B100200346AA
:10309000014600902A46204601F010F958B9502008
:1030A00080F31188BFF34F8FBFF36F8FFEE720F0DF
:1030B000010084F82800216A01B02046BDE8F040F4
:1030C000084700005000002030B587B03C4D6EE04E
:1030D0000398002803DADDE9042006999047039855
:1030E000002864DB059C606910B1201D00F0D6F952
:1030F00002A800F0AFF8024603980A2857D2DFE88A
:1031000000F00505052D334A05052D3394F82800F8
:1031100040F0010084F828000498A16903460144A6
:103120002046FFF761FF68B3216A2046884794F87C
:10313000280040073BD5002000900498A169002397
:1031400042181946204601F0B9F8D8B9502080F34A
:103150001188BFF34F8FBFF36F8FFEE714F8280F6E
:1031600020F00100207022E094F8280040F00100D7
:1031700084F828000498A06128B1811813462046DD
:10318000FFF732FF13E0502080F31188BFF34F8F19
:10319000BFF36F8FFEE794F82800810703D4204621
:1031A00000F00CFA03E020F0010084F8280000226F
:1031B00003A9286800F0B6FD002889D107B030BD0A
:1031C00050000020F8B506460D4600F051FB684659
:1031D00000F040F80446009810B100F0D7FFF8BDA9
:1031E00045B9A64206D800F0D1FF21463046FFF788
:1031F00037FFF8BD0C481DB10169096891B1002580
:10320000311B2A46006800F059FA00F0BFFF002881
:10321000EFD106494FF080500860BFF34F8FBFF3E6
:103220006F8FF8BD0125EBE75000002004ED00E0B2
:103230000748416B0968002905D0416BC968C96816
:103240004968816270474FF0FF318162704700002A
:103250001400002070B5054600F0B2FE0446074E8B
:10326000B068844204D200F00BF80120286001E02D
:1032700000202860B460204670BD0000500000208F
:10328000F8B51A4E20E0C0680568C468201D00F03B
:1032900005F9216A2046884794F82800400713D58D
:1032A000A0692844A84206D960602461211DF06805
:1032B00000F02AF908E000200346014600902A4663
:1032C000204600F0FBFF40B1F06801680029DAD128
:1032D000F0683169F1603061F8BD502080F31188E9
:1032E000BFF34F8FBFF36F8FFEE700005000002049
:1032F00009484068401C07D0502080F31188BFF374
:103300004F8FBFF36F8FFEE7502080F31188BFF31C
:103310004F8FBFF36F8FFEE78800002008B5684627
:10332000FFF758FD0099FFF74DFFFFF7CDFEF6E7D9
:103330002DE9F041044600F00BF994F9455004F1F1
:10334000240609E0606A48B1304600F0E3FE08B1A7
:1033500000F008FA6D1E6DB2002DF3DC4FF0FF3661
:1033600084F8456000F014F900F0F2F894F9445044
:1033700004F1100709E0206948B1384600F0CAFEA0
:1033800008B100F0EFF96D1E6DB2002DF3DC84F88A
:103390004460BDE8F04100F0FBB800002DE9F041C9
:1033A0000546002600F064FA324F386808B9FFF786
:1033B00023FD786905424DD18DB1083568070ED0DF
:1033C00005F00700C0F108000544680707D0502049
:1033D00080F31188BFF34F8FBFF36F8FFEE7CDB33C
:1033E0007868854236D8234918310846046801E0D8
:1033F000214604466068A84202D220680028F7D11E
:103400003868844226D00E680836206808606068F4
:10341000411B10290ED96019420707D0502080F3B4
:103420001188BFF34F8FBFF36F8FFEE74160656078
:10343000FFF7B0FD61687868401A7860BA6890421A
:1034400000D2B86078690143616000202060F868AC
:10345000401CF86000F09AFE700707D0502080F3FF
:103460001188BFF34F8FBFF36F8FFEE73046BDE883
:10347000F08100006800002024384FF08073036260
:1034800021F00101C1610449816142606FF00201D4
:1034900040F8201970470000F13200080169D0E9B6
:1034A00001329A60D0E901235A604A68824201D110
:1034B00082684A60002202610868401E086008684D
:1034C00070470000034B036003F15C0008607F203D
:1034D000106070477C080020034B036003F15C0020
:1034E0000860FE2010607047D40A002000F1080137
:1034F00041604FF0FF328260C160016100210160D4
:10350000704700210161704730B50C68621C02D021
:1035100000F1080202E0026904E01A4653681D68DF
:10352000A542FAD953684B6099608A60516008617E
:103530000168491C016030BD42684A6093688B6035
:1035400093685960916008610168491C0160704787
:10355000502080F31188BFF34F8FBFF36F8F0A495C
:103560004868401C486001280CD10848006810F0E9
:10357000FF0F07D0502080F31188BFF34F8FBFF3A8
:103580006F8FFEE7704700008800002004ED00E028
:1035900009494868002806D0401E4860002801D12B
:1035A00080F311887047502080F31188BFF34F8F4C
:1035B000BFF36F8FFEE700008800002070B5002881
:1035C0002AD008380446154D60686969084207D159
:1035D000502080F31188BFF34F8FBFF36F8FFEE74A
:1035E00022683AB1502080F31188BFF34F8FBFF3A8
:1035F0006F8FFEE78843606000F03AF960686968A1
:10360000084468602046FFF7C5FC2869401C286113
:10361000BDE8704000F0BABD70BD00006800002039
:103620004FF0E02000210161816105494FF47A7279
:103630000968B1FBF2F1491E416107210161704740
:103640001000002010B5FCF707FE114910280ED31A
:1036500000F1E02090F8F0030A78904207D2502061
:1036600080F31188BFF34F8FBFF36F8FFEE70948D8
:103670000068896800F4E060884207D9502080F330
:103680001188BFF34F8FBFF36F8FFEE710BD0000AF
:10369000880000200CED00E010B50022064B53F826
:1036A00032401CB1521C082AF9D310BD43F8321025
:1036B00003EBC201486010BD6002002070B50446F3
:1036C0000D461646FFF744FF94F944304FF00000D2
:1036D0005B1C01D184F8440094F94510491C01D1C8
:1036E00084F84500FFF754FFA06B28B932462946FD
:1036F00004F1240000F056F82046BDE87040FFF7C2
:1037000017BE000010B502460020002A12D00F4854
:10371000006B38B1502080F31188BFF34F8FBFF397
:103720006F8FFEE700F0A4F800211046FFF728FA9B
:1037300000F02CFD002807D105494FF080500860AB
:10374000BFF34F8FBFF36F8F10BD00001400002038
:1037500004ED00E002490A6A0260C96841607047EE
:103760001400002001490120C861704714000020A6
:1037700010B50C4600280AD0094909681831FFF72E
:10378000C3FE2046BDE810400121FFF7F9B95020E3
:1037900080F31188BFF34F8FBFF36F8FFEE70000F8
:1037A0001400002070B50D46144600280DD00B49BA
:1037B00009681831FFF7C0FE0CB14FF0FF35214604
:1037C0002846BDE87040FFF7DBB9502080F3118830
:1037D000BFF34F8FBFF36F8FFEE700001400002090
:1037E00030B587B000250695059504AA05A906A859
:1037F000FFF768FEDDE90510CDE9005102900023D6
:1038000017A11948049A00F09EFB184CE06208B119
:10381000012000E00020012801D100F01BFD01285B
:1038200009D0401C19D1502080F31188BFF34F8F6D
:10383000BFF36F8FFEE7502080F31188BFF34F8FE7
:10384000BFF36F8F4FF0FF30A06201206061E56031
:1038500007B0BDE8304000F047B807B030BD000009
:1038600049444C4500000000452E0008140000208B
:103870000248016B491C01637047000014000020DE
:1038800010B5174B186B002802D00120D86110BD6D
:103890000020D8611869134901E0C0B1401E00EB57
:1038A000800251F82220002AF7D000EB800201EBC1
:1038B00082014A6852684A6001F10804A24201D1BB
:1038C00052684A604968C9681960186110BD502083
:1038D00080F31188BFF34F8FBFF36F8FFEE70000B7
:1038E00014000020A00200201CB537480168374AA8
:1038F000914207D1502080F31188BFF34F8FBFF35F
:103900006F8FFEE700683149491E884207D1502079
:1039100080F31188BFF34F8FBFF36F8FFEE72C4901
:1039200008780190FF200870087800909DF800004A
:103930009DF8002000F0F000904207D0502080F366
:103940001188BFF34F8FBFF36F8FFEE79DF8000024
:10395000204C00F0500020700720A06006E0A06816
:10396000401EA0609DF80000400000909DF80000FF
:103970000006F4D4A068032807D0502080F31188F3
:10398000BFF34F8FBFF36F8FFEE74FF44070A0601F
:10399000019808700C482030016841F47001016002
:1039A000016841F070410160FFF73AFE002060605D
:1039B000FCF71AFC0848016841F040410160FCF73F
:1039C000FFFB00201CBD000000ED00E071C20F41B4
:1039D00000E400E08800002034EF00E010B5502043
:1039E00080F31188BFF34F8FBFF36F8F00F0EEFAB3
:1039F00018B104494FF080500860002080F311880E
:103A000010BD000004ED00E038B5049D002804D08E
:103A10005BB102B189B1C2B120E0502080F31188BE
:103A2000BFF34F8FBFF36F8FFEE7502080F31188F5
:103A3000BFF34F8FBFF36F8FFEE7502080F31188E5
:103A4000BFF34F8FBFF36F8FFEE739B1502080F384
:103A50001188BFF34F8FBFF36F8FFEE750240094A0
:103A60001C46012384F846302B460094FFF7FEF9EC
:103A7000204638BD70B504460D46002C25D0FFF712
:103A800067FDD4E90F20216802FB0011A16000212D
:103A9000A16321686160E06B2268216C401E00FB1D
:103AA0000121E1604FF0FF3084F8440084F84500C4
:103AB00004F110008DB1FFF719FD04F12400FFF7A8
:103AC00015FDFFF765FD012070BD502080F31188C2
:103AD000BFF34F8FBFF36F8FFEE721690029F0D04E
:103AE00000F018FB0028ECD004494FF0805008602B
:103AF000BFF34F8FBFF36F8FE3E7000004ED00E0EB
:103B00002DE9FF4782B004468A461E460025002C58
:103B100003D0BAF1000F08D011E0502080F31188D3
:103B2000BFF34F8FBFF36F8FFEE7206C38B150208B
:103B300080F31188BFF34F8FBFF36F8FFEE7022E24
:103B40000AD1E06B012807D0502080F31188BFF321
:103B50004F8FBFF36F8FFEE700F024FA48B9049847
:103B600038B1502080F31188BFF34F8FBFF36F8FB0
:103B7000FEE74FF000094FF08057DFF8E480FFF7D1
:103B8000E7FCA06BE16B884205D3022E03D00498BA
:103B900008B325B327E0324651462046FFF7C2F866
:103BA000616A59B104F1240000F0B4FA68B1C8F8B0
:103BB0000070BFF34F8FBFF36F8F06E028B1C8F8D6
:103BC0000070BFF34F8FBFF36F8FFFF7E1FC012051
:103BD00006B0BDE8F087FFF7DBFC0020F8E7684699
:103BE000FFF7B8FD0125FFF7D3FCFFF741FEFFF714
:103BF000AFFC94F94400401C01D184F8449094F93E
:103C00004500401C01D184F84590FFF7C1FC04A990
:103C1000684600F025F930B12046FFF789FB00F037
:103C2000B5FA0020D4E72046FFF70BFA90B104F173
:103C300010000499FFF79CFD2046FFF779FB00F088
:103C4000A5FA00289BD1C8F80070BFF34F8FBFF3CF
:103C50006F8F94E72046FFF76BFB00F097FA8EE733
:103C600004ED00E02DE9F0470446894690461F46E2
:103C7000002C03D0B9F1000F08D011E0502080F3E0
:103C80001188BFF34F8FBFF36F8FFEE7206C38B101
:103C9000502080F31188BFF34F8FBFF36F8FFEE783
:103CA000022F0AD1E06B012807D0502080F3118841
:103CB000BFF34F8FBFF36F8FFEE7FFF7C3FC5020BA
:103CC000EFF3118680F31188BFF34F8FBFF36F8F2F
:103CD000A06BE16B884206D3022F04D0002086F34C
:103CE0001188BDE8F08794F94550A06B3A464946E3
:103CF0002046FFF717F8681C04D06D1C84F8455067
:103D00000120ECE7606A0028FAD004F1240000F0FA
:103D100001FA0028F4D0B8F1000FF1D00120C8F862
:103D20000000EDE72DE9F74783B004468A460026F8
:103D3000002C03D0BAF1000F08D011E0502080F31E
:103D40001188BFF34F8FBFF36F8FFEE7206C38B140
:103D5000502080F31188BFF34F8FBFF36F8FFEE7C2
:103D600000F020F948B9059838B1502080F3118847
:103D7000BFF34F8FBFF36F8FFEE700274FF08058E0
:103D8000DFF8D890FFF7E4FBA56BC5B1514620469C
:103D9000FEF7B4FF6D1EA563206950B104F1100059
:103DA00000F0B8F928B1C9F80080BFF34F8FBFF316
:103DB0006F8FFFF7EDFB012006B0BDE8F087059897
:103DC00008B126B107E0FFF7E3FB0020F4E701A804
:103DD000FFF7C0FC0126FFF7DBFBFFF749FDFFF70C
:103DE000B7FB94F94400401C01D184F8447094F965
:103DF0004500401C01D184F84570FFF7C9FB05A9B7
:103E000001A800F02DF858B12046FFF791FA00F014
:103E1000BDF92046FFF708F90028B3D00020CBE712
:103E20002046FFF701F990B104F124000599FFF74E
:103E30009FFC2046FFF77CFA00F0A8F90028A1D1EA
:103E4000C9F80080BFF34F8FBFF36F8F9AE720460A
:103E5000FFF76EFA00F09AF994E7000004ED00E035
:103E60002DE9F04105460C46002D11D0C4B1FFF7F5
:103E70006FFB194EF0686B68C11A2268571C17D087
:103E80002F68366AB74215D0834213D801241DE04B
:103E9000502080F31188BFF34F8FBFF36F8FFEE781
:103EA000502080F31188BFF34F8FBFF36F8FFEE771
:103EB00000240BE08A4206D9501A20602846FFF7FA
:103EC00049FC002402E0002020600124FFF760FB91
:103ED0002046BDE8F0810000140000202DE9FF5FBE
:103EE0008146DDE90E788A4616469B46B000FFF70C
:103EF00055FA054628000AD05C20FFF74FFA044621
:103F00000CB1256304E02846FFF758FB00E00024CD
:103F10009CB1002084F85900CDE90240CDE9007839
:103F20005B46324651464846FEF7B1FF2046FEF753
:103F300057FE012004B000F003B84FF0FF30F9E75E
:103F400030BCBDE8C09FF0B585B00746DDE90A602A
:103F50000C9C002815D0E4B15C2503952063022059
:103F600084F85900002004ADCDE90240CDE9006598
:103F70003846FEF78CFF2046FEF732FE049805B067
:103F8000F0BD502080F31188BFF34F8FBFF36F8FC8
:103F9000FEE7502080F31188BFF34F8FBFF36F8F80
:103FA000FEE7000005484169002903D0006B18B105
:103FB0000020704701207047022070471400002045
:103FC0000148C06870470000140000202DE9F0414E
:103FD00000262F4F386B002805D0B869401CB86107
:103FE0003046BDE8F081FD686D1CFD609DB9786BC1
:103FF000006838B1502080F31188BFF34F8FBFF3B2
:104000006F8FFEE7786BB96B7963B863386A401CD1
:104010003862FFF70DF9B86ADFF8788085420DD372
:10402000786B006838B1786BC068C4686068854296
:1040300012D2B86202E04FF0FF30B8623868C06A4E
:1040400000EB800058F82000012800D90126F8690B
:104050000028C5D00126C3E7201DFFF71FFAA06A7C
:1040600018B104F11800FFF719FAE06A39698842BB
:1040700000D9386100EB800008EB8000211DFFF7BC
:104080005BFAE06A3968C96A8842C9D30126C7E782
:1040900014000020A002002070B504460020002C6F
:1040A0002BD01A4D29688C4207D0502080F31188FC
:1040B000BFF34F8FBFF36F8FFEE7216DF1B1491E44
:1040C0002165E36CE26A9A4217D0002915D1201DC0
:1040D000FFF7E4F9E06CE062C0F13800A061E06A4B
:1040E0002969884200D92861094900EB800001EB69
:1040F0008000211DFFF720FA012070BD502080F3C1
:104100001188BFF34F8FBFF36F8FFEE714000020BD
:10411000A002002070B5C068C468002C14D004F15F
:1041200018000646FFF7BAF9154D2A6BA2B13146C1
:104130001448FFF701FAE06A2968C96A88421CD965
:1041400001200121E96170BD502080F31188BFF387
:104150004F8FBFF36F8FFEE7201DFFF79FF9E06AD7
:104160002969884200D92861074900EB800001EBEA
:104170008000211DFFF7E0F9DDE7002070BD0000A1
:104180001400002028070020A00200202DE9F041A3
:10419000002400272B4D286B002807D0FFF7D8F903
:1041A000286B401E2863286B40B146E0502080F306
:1041B0001188BFF34F8FBFF36F8FFEE7A868E0B39E
:1041C000DFF8848001261CE0D8F80C00C46804F1F4
:1041D0001800FFF763F9201DFFF760F9E06A29690D
:1041E000884200D92861194900EB800001EB80006A
:1041F000211DFFF7A1F9E06A2968C96A884200D346
:10420000EE61D8F800000028DED10CB1FFF710F8FD
:10421000AC6944B1FFF7DAFE00B1EE61641E002C18
:10422000F8D10020A861E86938B1012708493807AA
:104230000860BFF34F8FBFF36F8FFFF7A9F93846C0
:10424000BDE8F0811400002028070020A002002013
:1042500004ED00E030B587B00024FEF705FD134DF6
:104260002868B0B100200690059004AA05A906A808
:10427000FFF732F9DDE905100222CDE900210290B5
:1042800000230BA10C48049AFFF75DFE686000B1A3
:10429000012414B107B0204630BD502080F31188AE
:1042A000BFF34F8FBFF36F8FFEE700005000002079
:1042B000546D7220537663001D3300082DE9FF41D1
:1042C00006460A9F9C460020002E15D0154D2C68EE
:1042D000002C0ED000910192029606291BDAFFF7FE
:1042E00061FE022810D000231A4669462868FFF7AD
:1042F00007FC04B0BDE8F081502080F31188BFF3C3
:104300004F8FBFF36F8FFEE700233A466946286858
:10431000FFF7F6FBEDE70023624669462046FFF70C
:10432000A1FCE6E7500000209443000800000000D4
:10433000000000000000000000000000000200007B
:104340001800000000000000000000000000000055
:10435000000000000102030406070809A08601000E
:10436000400D0300801A060000350C0040420F008B
:1043700080841E0000093D0000127A000024F40031
:1043800000366E010048E801006CDC02000000000D
:104390000102030464656661756C745461736B009B
:1043A000C04300080000002094000000FE2900081F
:1043B0005444000894000020C48B00000E2A00081A
:1043C00000000000010000001000000000000000DC
:1043D00000093D0000000000000000000000000097
:1043E00000000000000000000000000000000000CD
:1043F00000000000000000000000000000000000BD
:1044000000000000000000000000000000000000AC
:10441000000000000000000000000000000000009C
:10442000000000000000000000000000000000008C
:10443000000000000000000000000000000000007C
:10444000000000000000000000000000AAAAAAAAC4
:044450000000000068
:040000050800018965
:00000001FF
